:100000000C9434000C943E000C943E000C943E0082
:100010000C943E000C943E000C943E000C943E0068
:100020000C943E000C943E000C943E000C943E0058
:100030000C943E000C943E000C943E000C943E0048
:100040000C943E000C943E000C943E000C943E0038
:100050000C943E000C943E000C943E000C943E0028
:100060000C943E000C943E0011241FBECFEFD8E04C
:10007000DEBFCDBF0E9440000C946D000C940000C8
:100080008AB18AB98CEF8BB980E284B939B189B170
:10009000887099B1907129B1207232FD12C081111E
:1000A00008C081E0992341F08295880F807E85B950
:1000B000EDCF81E02111F8CF80E08295880F807E1E
:1000C000F6CF992339F0882391F3222319F080E0A9
:0E00D00085B9DCCF80E285B9D9CFF894FFCF97
:00000001FF
